{
  "address": "0x04A2d8d96733fa8c0a60289Ddb6Ecfd40AD7681F",
  "abi": [
    {
      "inputs": [
        {
          "internalType": "contract BFactory",
          "name": "_bFactory",
          "type": "address"
        },
        {
          "internalType": "contract MasterChef",
          "name": "_masterChef",
          "type": "address"
        },
        {
          "internalType": "uint256",
          "name": "_fee",
          "type": "uint256"
        }
      ],
      "stateMutability": "nonpayable",
      "type": "constructor"
    },
    {
      "anonymous": false,
      "inputs": [
        {
          "indexed": true,
          "internalType": "address",
          "name": "marketFactory",
          "type": "address"
        },
        {
          "indexed": true,
          "internalType": "uint256",
          "name": "marketId",
          "type": "uint256"
        },
        {
          "indexed": true,
          "internalType": "address",
          "name": "user",
          "type": "address"
        },
        {
          "indexed": false,
          "internalType": "address",
          "name": "recipient",
          "type": "address"
        },
        {
          "indexed": false,
          "internalType": "int256",
          "name": "collateral",
          "type": "int256"
        },
        {
          "indexed": false,
          "internalType": "int256",
          "name": "lpTokens",
          "type": "int256"
        },
        {
          "indexed": false,
          "internalType": "uint256[]",
          "name": "sharesReturned",
          "type": "uint256[]"
        }
      ],
      "name": "LiquidityChanged",
      "type": "event"
    },
    {
      "anonymous": false,
      "inputs": [
        {
          "indexed": true,
          "internalType": "address",
          "name": "previousOwner",
          "type": "address"
        },
        {
          "indexed": true,
          "internalType": "address",
          "name": "newOwner",
          "type": "address"
        }
      ],
      "name": "OwnershipTransferred",
      "type": "event"
    },
    {
      "anonymous": false,
      "inputs": [
        {
          "indexed": false,
          "internalType": "address",
          "name": "pool",
          "type": "address"
        },
        {
          "indexed": true,
          "internalType": "address",
          "name": "marketFactory",
          "type": "address"
        },
        {
          "indexed": true,
          "internalType": "uint256",
          "name": "marketId",
          "type": "uint256"
        },
        {
          "indexed": true,
          "internalType": "address",
          "name": "creator",
          "type": "address"
        },
        {
          "indexed": false,
          "internalType": "address",
          "name": "lpTokenRecipient",
          "type": "address"
        }
      ],
      "name": "PoolCreated",
      "type": "event"
    },
    {
      "anonymous": false,
      "inputs": [
        {
          "indexed": true,
          "internalType": "address",
          "name": "marketFactory",
          "type": "address"
        },
        {
          "indexed": true,
          "internalType": "uint256",
          "name": "marketId",
          "type": "uint256"
        },
        {
          "indexed": true,
          "internalType": "address",
          "name": "user",
          "type": "address"
        },
        {
          "indexed": false,
          "internalType": "uint256",
          "name": "outcome",
          "type": "uint256"
        },
        {
          "indexed": false,
          "internalType": "int256",
          "name": "collateral",
          "type": "int256"
        },
        {
          "indexed": false,
          "internalType": "int256",
          "name": "shares",
          "type": "int256"
        },
        {
          "indexed": false,
          "internalType": "uint256",
          "name": "price",
          "type": "uint256"
        }
      ],
      "name": "SharesSwapped",
      "type": "event"
    },
    {
      "inputs": [],
      "name": "BONE",
      "outputs": [
        {
          "internalType": "uint256",
          "name": "",
          "type": "uint256"
        }
      ],
      "stateMutability": "view",
      "type": "function"
    },
    {
      "inputs": [],
      "name": "BPOW_PRECISION",
      "outputs": [
        {
          "internalType": "uint256",
          "name": "",
          "type": "uint256"
        }
      ],
      "stateMutability": "view",
      "type": "function"
    },
    {
      "inputs": [],
      "name": "EXIT_FEE",
      "outputs": [
        {
          "internalType": "uint256",
          "name": "",
          "type": "uint256"
        }
      ],
      "stateMutability": "view",
      "type": "function"
    },
    {
      "inputs": [],
      "name": "INIT_POOL_SUPPLY",
      "outputs": [
        {
          "internalType": "uint256",
          "name": "",
          "type": "uint256"
        }
      ],
      "stateMutability": "view",
      "type": "function"
    },
    {
      "inputs": [],
      "name": "MAX_BOUND_TOKENS",
      "outputs": [
        {
          "internalType": "uint256",
          "name": "",
          "type": "uint256"
        }
      ],
      "stateMutability": "view",
      "type": "function"
    },
    {
      "inputs": [],
      "name": "MAX_BPOW_BASE",
      "outputs": [
        {
          "internalType": "uint256",
          "name": "",
          "type": "uint256"
        }
      ],
      "stateMutability": "view",
      "type": "function"
    },
    {
      "inputs": [],
      "name": "MAX_FEE",
      "outputs": [
        {
          "internalType": "uint256",
          "name": "",
          "type": "uint256"
        }
      ],
      "stateMutability": "view",
      "type": "function"
    },
    {
      "inputs": [],
      "name": "MAX_IN_RATIO",
      "outputs": [
        {
          "internalType": "uint256",
          "name": "",
          "type": "uint256"
        }
      ],
      "stateMutability": "view",
      "type": "function"
    },
    {
      "inputs": [],
      "name": "MAX_OUT_RATIO",
      "outputs": [
        {
          "internalType": "uint256",
          "name": "",
          "type": "uint256"
        }
      ],
      "stateMutability": "view",
      "type": "function"
    },
    {
      "inputs": [],
      "name": "MAX_TOTAL_WEIGHT",
      "outputs": [
        {
          "internalType": "uint256",
          "name": "",
          "type": "uint256"
        }
      ],
      "stateMutability": "view",
      "type": "function"
    },
    {
      "inputs": [],
      "name": "MAX_WEIGHT",
      "outputs": [
        {
          "internalType": "uint256",
          "name": "",
          "type": "uint256"
        }
      ],
      "stateMutability": "view",
      "type": "function"
    },
    {
      "inputs": [],
      "name": "MIN_BALANCE",
      "outputs": [
        {
          "internalType": "uint256",
          "name": "",
          "type": "uint256"
        }
      ],
      "stateMutability": "view",
      "type": "function"
    },
    {
      "inputs": [],
      "name": "MIN_BOUND_TOKENS",
      "outputs": [
        {
          "internalType": "uint256",
          "name": "",
          "type": "uint256"
        }
      ],
      "stateMutability": "view",
      "type": "function"
    },
    {
      "inputs": [],
      "name": "MIN_BPOW_BASE",
      "outputs": [
        {
          "internalType": "uint256",
          "name": "",
          "type": "uint256"
        }
      ],
      "stateMutability": "view",
      "type": "function"
    },
    {
      "inputs": [],
      "name": "MIN_FEE",
      "outputs": [
        {
          "internalType": "uint256",
          "name": "",
          "type": "uint256"
        }
      ],
      "stateMutability": "view",
      "type": "function"
    },
    {
      "inputs": [],
      "name": "MIN_WEIGHT",
      "outputs": [
        {
          "internalType": "uint256",
          "name": "",
          "type": "uint256"
        }
      ],
      "stateMutability": "view",
      "type": "function"
    },
    {
      "inputs": [
        {
          "internalType": "contract AbstractMarketFactoryV2",
          "name": "_marketFactory",
          "type": "address"
        },
        {
          "internalType": "uint256",
          "name": "_marketId",
          "type": "uint256"
        },
        {
          "internalType": "uint256",
          "name": "_collateralIn",
          "type": "uint256"
        },
        {
          "internalType": "uint256",
          "name": "_minLPTokensOut",
          "type": "uint256"
        },
        {
          "internalType": "address",
          "name": "_lpTokenRecipient",
          "type": "address"
        }
      ],
      "name": "addLiquidity",
      "outputs": [
        {
          "internalType": "uint256",
          "name": "_poolAmountOut",
          "type": "uint256"
        },
        {
          "internalType": "uint256[]",
          "name": "_balances",
          "type": "uint256[]"
        }
      ],
      "stateMutability": "nonpayable",
      "type": "function"
    },
    {
      "inputs": [],
      "name": "bFactory",
      "outputs": [
        {
          "internalType": "contract BFactory",
          "name": "",
          "type": "address"
        }
      ],
      "stateMutability": "view",
      "type": "function"
    },
    {
      "inputs": [
        {
          "internalType": "contract AbstractMarketFactoryV2",
          "name": "_marketFactory",
          "type": "address"
        },
        {
          "internalType": "uint256",
          "name": "_marketId",
          "type": "uint256"
        },
        {
          "internalType": "uint256",
          "name": "_outcome",
          "type": "uint256"
        },
        {
          "internalType": "uint256",
          "name": "_collateralIn",
          "type": "uint256"
        },
        {
          "internalType": "uint256",
          "name": "_minTokensOut",
          "type": "uint256"
        }
      ],
      "name": "buy",
      "outputs": [
        {
          "internalType": "uint256",
          "name": "",
          "type": "uint256"
        }
      ],
      "stateMutability": "nonpayable",
      "type": "function"
    },
    {
      "inputs": [
        {
          "internalType": "contract AbstractMarketFactoryV2",
          "name": "_marketFactory",
          "type": "address"
        },
        {
          "internalType": "uint256",
          "name": "_marketId",
          "type": "uint256"
        },
        {
          "internalType": "uint256",
          "name": "_initialLiquidity",
          "type": "uint256"
        },
        {
          "internalType": "address",
          "name": "_lpTokenRecipient",
          "type": "address"
        }
      ],
      "name": "createPool",
      "outputs": [
        {
          "internalType": "uint256",
          "name": "",
          "type": "uint256"
        }
      ],
      "stateMutability": "nonpayable",
      "type": "function"
    },
    {
      "inputs": [],
      "name": "getColor",
      "outputs": [
        {
          "internalType": "bytes32",
          "name": "",
          "type": "bytes32"
        }
      ],
      "stateMutability": "pure",
      "type": "function"
    },
    {
      "inputs": [
        {
          "internalType": "contract BPool",
          "name": "_pool",
          "type": "address"
        },
        {
          "internalType": "address",
          "name": "_user",
          "type": "address"
        }
      ],
      "name": "getPendingRewardInfo",
      "outputs": [
        {
          "components": [
            {
              "internalType": "uint256",
              "name": "beginTimestamp",
              "type": "uint256"
            },
            {
              "internalType": "uint256",
              "name": "endTimestamp",
              "type": "uint256"
            },
            {
              "internalType": "uint256",
              "name": "accruedStandardRewards",
              "type": "uint256"
            },
            {
              "internalType": "uint256",
              "name": "accruedEarlyDepositBonusRewards",
              "type": "uint256"
            },
            {
              "internalType": "uint256",
              "name": "pendingEarlyDepositBonusRewards",
              "type": "uint256"
            }
          ],
          "internalType": "struct MasterChef.PendingRewardInfo",
          "name": "",
          "type": "tuple"
        }
      ],
      "stateMutability": "view",
      "type": "function"
    },
    {
      "inputs": [
        {
          "internalType": "contract AbstractMarketFactoryV2",
          "name": "_marketFactory",
          "type": "address"
        },
        {
          "internalType": "uint256",
          "name": "_marketId",
          "type": "uint256"
        }
      ],
      "name": "getPool",
      "outputs": [
        {
          "internalType": "contract BPool",
          "name": "",
          "type": "address"
        }
      ],
      "stateMutability": "view",
      "type": "function"
    },
    {
      "inputs": [
        {
          "internalType": "contract AbstractMarketFactoryV2",
          "name": "_marketFactory",
          "type": "address"
        },
        {
          "internalType": "uint256",
          "name": "_marketId",
          "type": "uint256"
        }
      ],
      "name": "getPoolBalances",
      "outputs": [
        {
          "internalType": "uint256[]",
          "name": "",
          "type": "uint256[]"
        }
      ],
      "stateMutability": "view",
      "type": "function"
    },
    {
      "inputs": [
        {
          "internalType": "contract AbstractMarketFactoryV2",
          "name": "_marketFactory",
          "type": "address"
        },
        {
          "internalType": "uint256",
          "name": "_marketId",
          "type": "uint256"
        }
      ],
      "name": "getPoolWeights",
      "outputs": [
        {
          "internalType": "uint256[]",
          "name": "",
          "type": "uint256[]"
        }
      ],
      "stateMutability": "view",
      "type": "function"
    },
    {
      "inputs": [
        {
          "internalType": "contract AbstractMarketFactoryV2",
          "name": "_marketFactory",
          "type": "address"
        },
        {
          "internalType": "uint256",
          "name": "_marketId",
          "type": "uint256"
        }
      ],
      "name": "getSwapFee",
      "outputs": [
        {
          "internalType": "uint256",
          "name": "",
          "type": "uint256"
        }
      ],
      "stateMutability": "view",
      "type": "function"
    },
    {
      "inputs": [
        {
          "internalType": "contract AbstractMarketFactoryV2",
          "name": "_marketFactory",
          "type": "address"
        },
        {
          "internalType": "uint256",
          "name": "_marketId",
          "type": "uint256"
        },
        {
          "internalType": "address",
          "name": "_user",
          "type": "address"
        }
      ],
      "name": "getTokenBalance",
      "outputs": [
        {
          "internalType": "uint256",
          "name": "",
          "type": "uint256"
        }
      ],
      "stateMutability": "view",
      "type": "function"
    },
    {
      "inputs": [
        {
          "internalType": "contract BPool",
          "name": "_pool",
          "type": "address"
        },
        {
          "internalType": "address",
          "name": "_user",
          "type": "address"
        }
      ],
      "name": "getTokenBalanceByPool",
      "outputs": [
        {
          "internalType": "uint256",
          "name": "",
          "type": "uint256"
        }
      ],
      "stateMutability": "view",
      "type": "function"
    },
    {
      "inputs": [],
      "name": "masterChef",
      "outputs": [
        {
          "internalType": "contract MasterChef",
          "name": "",
          "type": "address"
        }
      ],
      "stateMutability": "view",
      "type": "function"
    },
    {
      "inputs": [
        {
          "internalType": "address",
          "name": "",
          "type": "address"
        }
      ],
      "name": "masterChefPools",
      "outputs": [
        {
          "internalType": "uint256",
          "name": "",
          "type": "uint256"
        }
      ],
      "stateMutability": "view",
      "type": "function"
    },
    {
      "inputs": [],
      "name": "owner",
      "outputs": [
        {
          "internalType": "address",
          "name": "",
          "type": "address"
        }
      ],
      "stateMutability": "view",
      "type": "function"
    },
    {
      "inputs": [
        {
          "internalType": "address",
          "name": "",
          "type": "address"
        },
        {
          "internalType": "uint256",
          "name": "",
          "type": "uint256"
        }
      ],
      "name": "pools",
      "outputs": [
        {
          "internalType": "contract BPool",
          "name": "",
          "type": "address"
        }
      ],
      "stateMutability": "view",
      "type": "function"
    },
    {
      "inputs": [
        {
          "internalType": "contract AbstractMarketFactoryV2",
          "name": "_marketFactory",
          "type": "address"
        },
        {
          "internalType": "uint256",
          "name": "_marketId",
          "type": "uint256"
        },
        {
          "internalType": "uint256",
          "name": "_lpTokensIn",
          "type": "uint256"
        },
        {
          "internalType": "uint256",
          "name": "_minCollateralOut",
          "type": "uint256"
        },
        {
          "internalType": "address",
          "name": "_collateralRecipient",
          "type": "address"
        }
      ],
      "name": "removeLiquidity",
      "outputs": [
        {
          "internalType": "uint256",
          "name": "_collateralOut",
          "type": "uint256"
        },
        {
          "internalType": "uint256[]",
          "name": "_balances",
          "type": "uint256[]"
        }
      ],
      "stateMutability": "nonpayable",
      "type": "function"
    },
    {
      "inputs": [],
      "name": "renounceOwnership",
      "outputs": [],
      "stateMutability": "nonpayable",
      "type": "function"
    },
    {
      "inputs": [
        {
          "internalType": "contract AbstractMarketFactoryV2",
          "name": "_marketFactory",
          "type": "address"
        },
        {
          "internalType": "uint256",
          "name": "_marketId",
          "type": "uint256"
        },
        {
          "internalType": "uint256",
          "name": "_outcome",
          "type": "uint256"
        },
        {
          "internalType": "uint256[]",
          "name": "_shareTokensIn",
          "type": "uint256[]"
        },
        {
          "internalType": "uint256",
          "name": "_minSetsOut",
          "type": "uint256"
        }
      ],
      "name": "sellForCollateral",
      "outputs": [
        {
          "internalType": "uint256",
          "name": "",
          "type": "uint256"
        }
      ],
      "stateMutability": "nonpayable",
      "type": "function"
    },
    {
      "inputs": [
        {
          "internalType": "contract AbstractMarketFactoryV2",
          "name": "_marketFactory",
          "type": "address"
        },
        {
          "internalType": "uint256",
          "name": "_marketId",
          "type": "uint256"
        }
      ],
      "name": "tokenRatios",
      "outputs": [
        {
          "internalType": "uint256[]",
          "name": "",
          "type": "uint256[]"
        }
      ],
      "stateMutability": "view",
      "type": "function"
    },
    {
      "inputs": [
        {
          "internalType": "address",
          "name": "newOwner",
          "type": "address"
        }
      ],
      "name": "transferOwnership",
      "outputs": [],
      "stateMutability": "nonpayable",
      "type": "function"
    }
  ],
  "transactionHash": "0x2d9ced7bdb22f7d4006a70fdaa7c69233d215e05c2c931e8603c738f1d2f04a6",
  "args": [
    "0xE152327f9700F1733d12e7a507045FB4A4606C6F",
    "0x1a7eE01AC976747c3a1d5807755e5F4b896C0B02",
    "15000000000000000"
  ],
  "solcInputHash": "650b95bb97557d4f4a4727b0476b4797",
  "bytecode": "0x60806040523480156200001157600080fd5b50604051620043cb380380620043cb8339810160408190526200003491620000c7565b600062000040620000c3565b600080546001600160a01b0319166001600160a01b0383169081178255604051929350917f8be0079c531659141344cd1fd0a4f28419497f9722a3daafe3b4186f6b6457e0908290a350600180546001600160a01b039485166001600160a01b031991821617909155600280549390941692169190911790915560055562000127565b3390565b600080600060608486031215620000dc578283fd5b8351620000e9816200010e565b6020850151909350620000fc816200010e565b80925050604084015190509250925092565b6001600160a01b03811681146200012457600080fd5b50565b61429480620001376000396000f3fe608060405234801561001057600080fd5b50600436106102275760003560e01c80638da5cb5b11610130578063bc694ea2116100b8578063d2364bf31161007c578063d2364bf314610400578063e4a28a521461022c578063ec09302114610413578063f2fde38b1461041b578063fa0de3591461042e57610227565b8063bc694ea2146103bd578063c36596a614610267578063c6580d12146103c5578063c7b4b6dd146103cd578063d055da71146103ed57610227565b80639a86139b116100ff5780639a86139b14610395578063b0e0d1361461039d578063b7b800a4146103a5578063ba019dab146103ad578063bc063e1a146103b557610227565b80638da5cb5b1461036a5780638f38a555146103725780639381cd2b14610385578063992e2a921461038d57610227565b806360cac85a116101b3578063761c368611610182578063761c36861461032157806376c7a3c714610334578063842980f41461033c57806384e415541461034f578063867378c51461036257610227565b806360cac85a146102d15780636708186d146102e4578063715018a61461030457806372b60c301461030e57610227565b80633f340d25116101fa5780633f340d251461026f57806345fa678314610282578063575a86b2146102a357806359f842b2146102ab5780635b5b9ea2146102be57610227565b806309a3bbe41461022c5780630a1659401461024a578063189d00ca1461025f578063218b538214610267575b600080fd5b610234610441565b6040516102419190613f2f565b60405180910390f35b61025261044e565b6040516102419190613e25565b61023461045d565b610234610471565b61023461027d366004613a2c565b61047d565b610295610290366004613b73565b6105c5565b60405161024192919061418d565b610252610df1565b6102956102b9366004613b73565b610e00565b6102526102cc366004613a1a565b611549565b6102346102df366004613ab6565b611576565b6102f76102f2366004613c27565b611c6b565b604051610241919061413c565b61030c611dc8565b005b61023461031c366004613bc8565b611e86565b61023461032f3660046138e9565b61230b565b61023461231d565b61023461034a366004613a6d565b61232f565b61023461035d366004613c27565b612d94565b610234612eb8565b610252612ecc565b610252610380366004613905565b612edb565b610234612f01565b610234612f0e565b610234612f1a565b610234612f27565b610234612f2c565b610234612f31565b610234612f36565b610234612f46565b610234612f52565b6103e06103db366004613a1a565b612f57565b6040516102419190613f1c565b6103e06103fb366004613a1a565b61319e565b6103e061040e366004613a1a565b613357565b610234613506565b61030c6104293660046138e9565b613516565b61023461043c366004613a1a565b61362a565b6802b5e3af16b188000081565b6001546001600160a01b031681565b6402540be400670de0b6b3a76400005b0481565b670de0b6b3a764000081565b6001600160a01b0380841660009081526003602090815260408083208684528252808320548416808452600480845282852054600254845163040f1f6d60e11b815294519697939691958695919094169363081e3eda93828101939192829003018186803b1580156104ee57600080fd5b505afa158015610502573d6000803e3d6000fd5b505050506040513d601f19601f820116820180604052508101906105269190613db0565b11156105b757600254604051633437586b60e01b81526001600160a01b0390911690633437586b9061055e9084908890600401614176565b60206040518083038186803b15801561057657600080fd5b505afa15801561058a573d6000803e3d6000fd5b505050506040513d601f19601f820116820180604052508101906105ae9190613db0565b925050506105be565b6000925050505b9392505050565b6001600160a01b038086166000908152600360209081526040808320888452909152812054909160609116806106165760405162461bcd60e51b815260040161060d906140da565b60405180910390fd5b60405163eb44fdd360e01b81526000906001600160a01b038a169063eb44fdd390610645908b90600401613f2f565b60006040518083038186803b15801561065d57600080fd5b505afa158015610671573d6000803e3d6000fd5b505050506040513d6000823e601f3d908101601f191682016040526106999190810190613c5f565b90506000896001600160a01b031663d8dfeb456040518163ffffffff1660e01b815260040160206040518083038186803b1580156106d657600080fd5b505afa1580156106ea573d6000803e3d6000fd5b505050506040513d601f19601f8201168201806040525081019061070e9190613c0b565b6040516323b872dd60e01b81529091506001600160a01b038216906323b872dd9061074190339030908d90600401613e53565b602060405180830381600087803b15801561075b57600080fd5b505af115801561076f573d6000803e3d6000fd5b505050506040513d601f19601f8201168201806040525081019061079391906139fa565b5060405163095ea7b360e01b81526001600160a01b0382169063095ea7b3906107c4908d9060001990600401613e77565b602060405180830381600087803b1580156107de57600080fd5b505af11580156107f2573d6000803e3d6000fd5b505050506040513d601f19601f8201168201806040525081019061081691906139fa565b50604051636643d6f560e11b81526000906001600160a01b038c169063cc87adea90610846908c90600401613f2f565b60206040518083038186803b15801561085e57600080fd5b505afa158015610872573d6000803e3d6000fd5b505050506040513d601f19601f820116820180604052508101906108969190613db0565b60405163221fff8160e01b81529091506001600160a01b038c169063221fff81906108c9908d90859030906004016141c1565b600060405180830381600087803b1580156108e357600080fd5b505af11580156108f7573d6000803e3d6000fd5b5050505060001995506000846001600160a01b03166318160ddd6040518163ffffffff1660e01b815260040160206040518083038186803b15801561093b57600080fd5b505afa15801561094f573d6000803e3d6000fd5b505050506040513d601f19601f820116820180604052508101906109739190613db0565b905060008460200151516001600160401b038111801561099257600080fd5b506040519080825280602002602001820160405280156109bc578160200160208202803683370190505b50905060005b856020015151811015610ace57838282815181106109dc57fe5b6020026020010181815250506000866020015182815181106109fa57fe5b602002602001015190506000886001600160a01b031663f8b2cb4f836040518263ffffffff1660e01b8152600401610a329190613e25565b60206040518083038186803b158015610a4a57600080fd5b505afa158015610a5e573d6000803e3d6000fd5b505050506040513d601f19601f82011682018060405250810190610a829190613db0565b90506000670de0b6b3a764000060028704836706f05b59d3b1ffff198a840201890281610aab57fe5b040381610ab457fe5b0490508b811015610ac357809b505b5050506001016109c2565b506040516313da703560e21b81526001600160a01b03871690634f69c0d490610afd908b90859060040161418d565b600060405180830381600087803b158015610b1757600080fd5b505af1158015610b2b573d6000803e3d6000fd5b50505050505087861015610b515760405162461bcd60e51b815260040161060d90613fd0565b6002546001600160a01b0385811660009081526004602081905260409182902054915163b347475160e01b8152929093169263b347475192610b99928c9290918c9101613e90565b600060405180830381600087803b158015610bb357600080fd5b505af1158015610bc7573d6000803e3d6000fd5b505050508260200151516001600160401b0381118015610be657600080fd5b50604051908082528060200260200182016040528015610c10578160200160208202803683370190505b50945060005b836020015151811015610d8d57600084602001518281518110610c3557fe5b60200260200101519050806001600160a01b03166370a08231306040518263ffffffff1660e01b8152600401610c6b9190613e25565b60206040518083038186803b158015610c8357600080fd5b505afa158015610c97573d6000803e3d6000fd5b505050506040513d601f19601f82011682018060405250810190610cbb9190613db0565b878381518110610cc757fe5b6020026020010181815250506000878381518110610ce157fe5b60200260200101511115610d8457806001600160a01b031663a9059cbb8a898581518110610d0b57fe5b60200260200101516040518363ffffffff1660e01b8152600401610d30929190613e77565b602060405180830381600087803b158015610d4a57600080fd5b505af1158015610d5e573d6000803e3d6000fd5b505050506040513d601f19601f82011682018060405250810190610d8291906139fa565b505b50600101610c16565b50336001600160a01b03168a8c6001600160a01b03167f9a1dccf45b5053e827f262e45fbb5211c2bd99497d340eecaebbd245eb48f4bc8a8d6000038b8b604051610ddb9493929190613eb1565b60405180910390a4505050509550959350505050565b6002546001600160a01b031681565b6001600160a01b03808616600090815260036020908152604080832088845290915281205490916060911680610e485760405162461bcd60e51b815260040161060d906140da565b60405163eb44fdd360e01b81526000906001600160a01b038a169063eb44fdd390610e77908b90600401613f2f565b60006040518083038186803b158015610e8f57600080fd5b505afa158015610ea3573d6000803e3d6000fd5b505050506040513d6000823e601f3d908101601f19168201604052610ecb9190810190613c5f565b6002546001600160a01b03848116600090815260046020819052604091829020549151621b35f160e41b815294955091909216926301b35f1092610f139233928d9101613e90565b600060405180830381600087803b158015610f2d57600080fd5b505af1158015610f41573d6000803e3d6000fd5b50505050606060008260200151516001600160401b0381118015610f6457600080fd5b50604051908082528060200260200182016040528015610f8e578160200160208202803683370190505b5060405163ea40f3f760e01b81529091506001600160a01b0385169063ea40f3f790610fc0908c90859060040161418d565b60006040518083038186803b158015610fd857600080fd5b505afa158015610fec573d6000803e3d6000fd5b505050506040513d6000823e601f3d908101601f1916820160405261101491908101906139c8565b60405163b02f0b7360e01b81529092506001600160a01b0385169063b02f0b7390611045908c90859060040161418d565b600060405180830381600087803b15801561105f57600080fd5b505af1158015611073573d6000803e3d6000fd5b5060001993506000925050505b8360200151518110156110ba57600083828151811061109b57fe5b60200260200101519050828110156110b1578092505b50600101611080565b508a6001600160a01b0316637641ab016040518163ffffffff1660e01b815260040160206040518083038186803b1580156110f457600080fd5b505afa158015611108573d6000803e3d6000fd5b505050506040513d601f19601f8201168201806040525081019061112c9190613db0565b8b6001600160a01b0316637641ab016040518163ffffffff1660e01b815260040160206040518083038186803b15801561116557600080fd5b505afa158015611179573d6000803e3d6000fd5b505050506040513d601f19601f8201168201806040525081019061119d9190613db0565b82816111a557fe5b0402905060008b6001600160a01b03166353ac55f58c6040518263ffffffff1660e01b81526004016111d79190613f2f565b60206040518083038186803b1580156111ef57600080fd5b505afa158015611203573d6000803e3d6000fd5b505050506040513d601f19601f8201168201806040525081019061122791906139fa565b905080156112b65760405163992c907960e01b81526001600160a01b038d169063992c90799061125d908e908c90600401614176565b602060405180830381600087803b15801561127757600080fd5b505af115801561128b573d6000803e3d6000fd5b505050506040513d601f19601f820116820180604052508101906112af9190613db0565b965061133b565b6040516335a9cdad60e01b81526001600160a01b038d16906335a9cdad906112e6908e9086908d906004016141c1565b602060405180830381600087803b15801561130057600080fd5b505af1158015611314573d6000803e3d6000fd5b505050506040513d601f19601f820116820180604052508101906113389190613db0565b96505b88871161135a5760405162461bcd60e51b815260040161060d90613f8a565b8360200151516001600160401b038111801561137557600080fd5b5060405190808252806020026020018201604052801561139f578160200160208202803683370190505b50955060005b8460200151518110156114e4576000856020015182815181106113c457fe5b602002602001015190508280156113f0575085606001516001600160a01b0316816001600160a01b0316145b156113fb57506114dc565b8385838151811061140857fe5b60200260200101510388838151811061141d57fe5b602002602001018181525050600088838151811061143757fe5b602002602001015111156114da57806001600160a01b031663a9059cbb8b8a858151811061146157fe5b60200260200101516040518363ffffffff1660e01b8152600401611486929190613e77565b602060405180830381600087803b1580156114a057600080fd5b505af11580156114b4573d6000803e3d6000fd5b505050506040513d601f19601f820116820180604052508101906114d891906139fa565b505b505b6001016113a5565b50336001600160a01b03168b8d6001600160a01b03167f9a1dccf45b5053e827f262e45fbb5211c2bd99497d340eecaebbd245eb48f4bc8b8b8f6000038c6040516115329493929190613eb1565b60405180910390a450505050509550959350505050565b6001600160a01b038083166000908152600360209081526040808320858452909152902054165b92915050565b6001600160a01b038086166000908152600360209081526040808320888452909152812054909116806115bb5760405162461bcd60e51b815260040161060d906140da565b60405163eb44fdd360e01b81526000906001600160a01b0389169063eb44fdd3906115ea908a90600401613f2f565b60006040518083038186803b15801561160257600080fd5b505afa158015611616573d6000803e3d6000fd5b505050506040513d6000823e601f3d908101601f1916820160405261163e9190810190613c5f565b90506000196000805b8360200151518110156116795787818151811061166057fe5b6020026020010151820191508080600101915050611647565b508260200151888151811061168a57fe5b60200260200101516001600160a01b03166323b872dd3330846040518463ffffffff1660e01b81526004016116c193929190613e53565b602060405180830381600087803b1580156116db57600080fd5b505af11580156116ef573d6000803e3d6000fd5b505050506040513d601f19601f8201168201806040525081019061171391906139fa565b508260200151888151811061172457fe5b60200260200101516001600160a01b031663095ea7b3856000196040518363ffffffff1660e01b815260040161175b929190613e77565b602060405180830381600087803b15801561177557600080fd5b505af1158015611789573d6000803e3d6000fd5b505050506040513d601f19601f820116820180604052508101906117ad91906139fa565b5060005b8360200151518110156119a357888114156117cb5761199b565b6000846020015182815181106117dd57fe5b602002602001015190506000866001600160a01b0316638201aa3f87602001518d8151811061180857fe5b60200260200101518c868151811061181c57fe5b60200260200101518560006000196040518663ffffffff1660e01b815260040161184a959493929190613ee8565b6040805180830381600087803b15801561186357600080fd5b505af1158015611877573d6000803e3d6000fd5b505050506040513d601f19601f8201168201806040525081019061189b9190613dc8565b5090508c6001600160a01b0316637641ab016040518163ffffffff1660e01b815260040160206040518083038186803b1580156118d757600080fd5b505afa1580156118eb573d6000803e3d6000fd5b505050506040513d601f19601f8201168201806040525081019061190f9190613db0565b8d6001600160a01b0316637641ab016040518163ffffffff1660e01b815260040160206040518083038186803b15801561194857600080fd5b505afa15801561195c573d6000803e3d6000fd5b505050506040513d601f19601f820116820180604052508101906119809190613db0565b828161198857fe5b0402905084811015611998578094505b50505b6001016117b1565b50858210156119c45760405162461bcd60e51b815260040161060d90614018565b6040516335a9cdad60e01b81526001600160a01b038b16906335a9cdad906119f4908c90869033906004016141c1565b602060405180830381600087803b158015611a0e57600080fd5b505af1158015611a22573d6000803e3d6000fd5b505050506040513d601f19601f82011682018060405250810190611a469190613db0565b5060005b836020015151811015611b8557600084602001518281518110611a6957fe5b602002602001015190506000816001600160a01b03166370a08231306040518263ffffffff1660e01b8152600401611aa19190613e25565b60206040518083038186803b158015611ab957600080fd5b505afa158015611acd573d6000803e3d6000fd5b505050506040513d601f19601f82011682018060405250810190611af19190613db0565b90508015611b7b5760405163a9059cbb60e01b81526001600160a01b0383169063a9059cbb90611b279033908590600401613e77565b602060405180830381600087803b158015611b4157600080fd5b505af1158015611b55573d6000803e3d6000fd5b505050506040513d601f19601f82011682018060405250810190611b7991906139fa565b505b5050600101611a4a565b5060405163239d36a960e11b81526000906001600160a01b038c169063473a6d5290611bb5908690600401613f2f565b60206040518083038186803b158015611bcd57600080fd5b505afa158015611be1573d6000803e3d6000fd5b505050506040513d601f19601f82011682018060405250810190611c059190613db0565b9050338a6001600160a01b038d167fec2a60d57293d00dfe68ab5f1d18738c4600ce39c0c0c623fc086814615f33fa8c856000889003611c458a8a6136c4565b604051611c5594939291906141a6565b60405180910390a49a9950505050505050505050565b611c736137db565b6001600160a01b0380841660009081526004602081815260409283902054600254845163040f1f6d60e11b815294519195869591169363081e3eda93828201939092909190829003018186803b158015611ccc57600080fd5b505afa158015611ce0573d6000803e3d6000fd5b505050506040513d601f19601f82011682018060405250810190611d049190613db0565b1115611d94576002546040516312b66dfb60e21b81526001600160a01b0390911690634ad9b7ec90611d3c9084908790600401614176565b60a06040518083038186803b158015611d5457600080fd5b505afa158015611d68573d6000803e3d6000fd5b505050506040513d601f19601f82011682018060405250810190611d8c9190613d48565b915050611570565b6040518060a00160405280600081526020016000815260200160008152602001600081526020016000815250915050611570565b611dd06137d7565b6001600160a01b0316611de1612ecc565b6001600160a01b031614611e3c576040805162461bcd60e51b815260206004820181905260248201527f4f776e61626c653a2063616c6c6572206973206e6f7420746865206f776e6572604482015290519081900360640190fd5b600080546040516001600160a01b03909116907f8be0079c531659141344cd1fd0a4f28419497f9722a3daafe3b4186f6b6457e0908390a3600080546001600160a01b0319169055565b6001600160a01b03808616600090815260036020908152604080832088845290915281205490911680611ecb5760405162461bcd60e51b815260040161060d906140da565b60405163eb44fdd360e01b81526000906001600160a01b0389169063eb44fdd390611efa908a90600401613f2f565b60006040518083038186803b158015611f1257600080fd5b505afa158015611f26573d6000803e3d6000fd5b505050506040513d6000823e601f3d908101601f19168201604052611f4e9190810190613c5f565b90506000886001600160a01b031663d8dfeb456040518163ffffffff1660e01b815260040160206040518083038186803b158015611f8b57600080fd5b505afa158015611f9f573d6000803e3d6000fd5b505050506040513d601f19601f82011682018060405250810190611fc39190613c0b565b6040516323b872dd60e01b81529091506001600160a01b038216906323b872dd90611ff690339030908b90600401613e53565b602060405180830381600087803b15801561201057600080fd5b505af1158015612024573d6000803e3d6000fd5b505050506040513d601f19601f8201168201806040525081019061204891906139fa565b50604051636643d6f560e11b81526000906001600160a01b038b169063cc87adea90612078908a90600401613f2f565b60206040518083038186803b15801561209057600080fd5b505afa1580156120a4573d6000803e3d6000fd5b505050506040513d601f19601f820116820180604052508101906120c89190613db0565b60405163221fff8160e01b81529091506001600160a01b038b169063221fff81906120fb908c90859030906004016141c1565b600060405180830381600087803b15801561211557600080fd5b505af1158015612129573d6000803e3d6000fd5b505050506000819050600084602001518a8151811061214457fe5b6020026020010151905060005b856020015151811015612222578a81141561216b5761221a565b60008660200151828151811061217d57fe5b602002602001015190506000886001600160a01b0316638201aa3f83888760006000196040518663ffffffff1660e01b81526004016121c0959493929190613ee8565b6040805180830381600087803b1580156121d957600080fd5b505af11580156121ed573d6000803e3d6000fd5b505050506040513d601f19601f820116820180604052508101906122119190613dc8565b50949094019350505b600101612151565b50878210156122435760405162461bcd60e51b815260040161060d90614111565b60405163a9059cbb60e01b81526001600160a01b0382169063a9059cbb906122719033908690600401613e77565b602060405180830381600087803b15801561228b57600080fd5b505af115801561229f573d6000803e3d6000fd5b505050506040513d601f19601f820116820180604052508101906122c391906139fa565b5050336001600160a01b03168a8c6001600160a01b03167fec2a60d57293d00dfe68ab5f1d18738c4600ce39c0c0c623fc086814615f33fa8c8c60000386611c4589896136c4565b60046020526000908152604090205481565b620f4240670de0b6b3a764000061046d565b6001600160a01b038481166000908152600360209081526040808320878452909152812054909116156123745760405162461bcd60e51b815260040161060d9061404f565b60405163eb44fdd360e01b81526000906001600160a01b0387169063eb44fdd3906123a3908890600401613f2f565b60006040518083038186803b1580156123bb57600080fd5b505afa1580156123cf573d6000803e3d6000fd5b505050506040513d6000823e601f3d908101601f191682016040526123f79190810190613c5f565b90506000866001600160a01b031663cc87adea866040518263ffffffff1660e01b81526004016124279190613f2f565b60206040518083038186803b15801561243f57600080fd5b505afa158015612453573d6000803e3d6000fd5b505050506040513d601f19601f820116820180604052508101906124779190613db0565b905068056bc75e2d631000008110156124a25760405162461bcd60e51b815260040161060d90613f38565b6000876001600160a01b031663d8dfeb456040518163ffffffff1660e01b815260040160206040518083038186803b1580156124dd57600080fd5b505afa1580156124f1573d6000803e3d6000fd5b505050506040513d601f19601f820116820180604052508101906125159190613c0b565b905085816001600160a01b031663dd62ed3e33306040518363ffffffff1660e01b8152600401612546929190613e39565b60206040518083038186803b15801561255e57600080fd5b505afa158015612572573d6000803e3d6000fd5b505050506040513d601f19601f820116820180604052508101906125969190613db0565b10156125b45760405162461bcd60e51b815260040161060d9061407d565b6040516323b872dd60e01b81526001600160a01b038216906323b872dd906125e490339030908b90600401613e53565b602060405180830381600087803b1580156125fe57600080fd5b505af1158015612612573d6000803e3d6000fd5b505050506040513d601f19601f8201168201806040525081019061263691906139fa565b5060405163095ea7b360e01b81526001600160a01b0382169063095ea7b390612667908b9060001990600401613e77565b602060405180830381600087803b15801561268157600080fd5b505af1158015612695573d6000803e3d6000fd5b505050506040513d601f19601f820116820180604052508101906126b991906139fa565b5060405163221fff8160e01b81526001600160a01b0389169063221fff81906126ea908a90869030906004016141c1565b600060405180830381600087803b15801561270457600080fd5b505af1158015612718573d6000803e3d6000fd5b505050506000600160009054906101000a90046001600160a01b03166001600160a01b031663d556c5dc6040518163ffffffff1660e01b8152600401602060405180830381600087803b15801561276e57600080fd5b505af1158015612782573d6000803e3d6000fd5b505050506040513d601f19601f820116820180604052508101906127a69190613c0b565b905060005b8460200151518110156128de576000856020015182815181106127ca57fe5b60200260200101519050806001600160a01b031663095ea7b3846000196040518363ffffffff1660e01b8152600401612804929190613e77565b602060405180830381600087803b15801561281e57600080fd5b505af1158015612832573d6000803e3d6000fd5b505050506040513d601f19601f8201168201806040525081019061285691906139fa565b50826001600160a01b031663e4e1e5388287896101000151868151811061287957fe5b60200260200101516040518463ffffffff1660e01b815260040161289f93929190613e90565b600060405180830381600087803b1580156128b957600080fd5b505af11580156128cd573d6000803e3d6000fd5b5050600190930192506127ab915050565b506005546040516334e1990760e01b81526001600160a01b038316916334e199079161290d9190600401613f2f565b600060405180830381600087803b15801561292757600080fd5b505af115801561293b573d6000803e3d6000fd5b50505050806001600160a01b0316634bb278f36040518163ffffffff1660e01b8152600401600060405180830381600087803b15801561297a57600080fd5b505af115801561298e573d6000803e3d6000fd5b50505050806001600160a01b031663a9059cbb60006103e8670de0b6b3a7640000816129b657fe5b046040518363ffffffff1660e01b81526004016129d4929190613e77565b602060405180830381600087803b1580156129ee57600080fd5b505af1158015612a02573d6000803e3d6000fd5b505050506040513d601f19601f82011682018060405250810190612a2691906139fa565b506001600160a01b0389811660009081526003602090815260408083208c84528252822080546001600160a01b0319169385169390931790925590850151516001600160401b0381118015612a7a57600080fd5b50604051908082528060200260200182016040528015612aa4578160200160208202803683370190505b50905060005b856020015151811015612ad8576000828281518110612ac557fe5b6020908102919091010152600101612aaa565b506002546040516352c28fab60e01b81526000916001600160a01b0316906352c28fab90612b0c908e908790600401613e39565b602060405180830381600087803b158015612b2657600080fd5b505af1158015612b3a573d6000803e3d6000fd5b505050506040513d601f19601f82011682018060405250810190612b5e9190613db0565b6001600160a01b03808516600081815260046020819052604091829020859055600254915163095ea7b360e01b8152949550919363095ea7b393612ba9939216916000199101613e77565b602060405180830381600087803b158015612bc357600080fd5b505af1158015612bd7573d6000803e3d6000fd5b505050506040513d601f19601f82011682018060405250810190612bfb91906139fa565b506040516370a0823160e01b81526000906001600160a01b038516906370a0823190612c2b903090600401613e25565b60206040518083038186803b158015612c4357600080fd5b505afa158015612c57573d6000803e3d6000fd5b505050506040513d601f19601f82011682018060405250810190612c7b9190613db0565b60025460405163b347475160e01b81529192506001600160a01b03169063b347475190612cb0908c9086908690600401613e90565b600060405180830381600087803b158015612cca57600080fd5b505af1158015612cde573d6000803e3d6000fd5b50505050336001600160a01b03168b8d6001600160a01b03167ffb27591822deac7913ea973cf845992f243e2ba5634ef8fbe0b6554aca37a428878d604051612d28929190613e39565b60405180910390a4336001600160a01b03168b8d6001600160a01b03167f9a1dccf45b5053e827f262e45fbb5211c2bd99497d340eecaebbd245eb48f4bc8c8e6000038689604051612d7d9493929190613eb1565b60405180910390a49b9a5050505050505050505050565b6001600160a01b03808316600090815260046020818152604080842054600254825163040f1f6d60e11b81529251959691958695919092169363081e3eda9380830193919290829003018186803b158015612dee57600080fd5b505afa158015612e02573d6000803e3d6000fd5b505050506040513d601f19601f82011682018060405250810190612e269190613db0565b1115612eae57600254604051633437586b60e01b81526001600160a01b0390911690633437586b90612e5e9084908790600401614176565b60206040518083038186803b158015612e7657600080fd5b505afa158015612e8a573d6000803e3d6000fd5b505050506040513d601f19601f82011682018060405250810190611d8c9190613db0565b6000915050611570565b64e8d4a51000670de0b6b3a764000061046d565b6000546001600160a01b031690565b60036020908152600092835260408084209091529082529020546001600160a01b031681565b68056bc75e2d6310000081565b6704a03ce68d21555681565b6542524f4e5a4560d01b90565b600881565b600281565b600181565b600a670de0b6b3a764000061046d565b671bc16d674ec7ffff81565b600081565b6001600160a01b0380831660009081526003602090815260408083208584529091529020546060911680612fbc576000805b50604051908082528060200260200182016040528015612fb3578160200160208202803683370190505b50915050611570565b60405163eb44fdd360e01b81526000906001600160a01b0386169063eb44fdd390612feb908790600401613f2f565b60006040518083038186803b15801561300357600080fd5b505afa158015613017573d6000803e3d6000fd5b505050506040513d6000823e601f3d908101601f1916820160405261303f9190810190613c5f565b90506000816020015160008151811061305457fe5b6020026020010151905060008260200151516001600160401b038111801561307b57600080fd5b506040519080825280602002602001820160405280156130a5578160200160208202803683370190505b509050670de0b6b3a7640000816000815181106130be57fe5b602090810291909101015260015b836020015151811015613193576000856001600160a01b03166315e84af985876020015185815181106130fb57fe5b60200260200101516040518363ffffffff1660e01b8152600401613120929190613e39565b60206040518083038186803b15801561313857600080fd5b505afa15801561314c573d6000803e3d6000fd5b505050506040513d601f19601f820116820180604052508101906131709190613db0565b90508083838151811061317f57fe5b6020908102919091010152506001016130cc565b509695505050505050565b6001600160a01b03808316600090815260036020908152604080832085845290915290205460609116806131d457600080612f89565b6000816001600160a01b031663cc77828d6040518163ffffffff1660e01b815260040160006040518083038186803b15801561320f57600080fd5b505afa158015613223573d6000803e3d6000fd5b505050506040513d6000823e601f3d908101601f1916820160405261324b9190810190613930565b9050600081516001600160401b038111801561326657600080fd5b50604051908082528060200260200182016040528015613290578160200160208202803683370190505b50905060005b825181101561334d57836001600160a01b031663948d8ce68483815181106132ba57fe5b60200260200101516040518263ffffffff1660e01b81526004016132de9190613e25565b60206040518083038186803b1580156132f657600080fd5b505afa15801561330a573d6000803e3d6000fd5b505050506040513d601f19601f8201168201806040525081019061332e9190613db0565b82828151811061333a57fe5b6020908102919091010152600101613296565b5095945050505050565b6001600160a01b038083166000908152600360209081526040808320858452909152902054606091168061338d57600080612f89565b6000816001600160a01b031663cc77828d6040518163ffffffff1660e01b815260040160006040518083038186803b1580156133c857600080fd5b505afa1580156133dc573d6000803e3d6000fd5b505050506040513d6000823e601f3d908101601f191682016040526134049190810190613930565b9050600081516001600160401b038111801561341f57600080fd5b50604051908082528060200260200182016040528015613449578160200160208202803683370190505b50905060005b825181101561334d57836001600160a01b031663f8b2cb4f84838151811061347357fe5b60200260200101516040518263ffffffff1660e01b81526004016134979190613e25565b60206040518083038186803b1580156134af57600080fd5b505afa1580156134c3573d6000803e3d6000fd5b505050506040513d601f19601f820116820180604052508101906134e79190613db0565b8282815181106134f357fe5b602090810291909101015260010161344f565b6002670de0b6b3a764000061046d565b61351e6137d7565b6001600160a01b031661352f612ecc565b6001600160a01b03161461358a576040805162461bcd60e51b815260206004820181905260248201527f4f776e61626c653a2063616c6c6572206973206e6f7420746865206f776e6572604482015290519081900360640190fd5b6001600160a01b0381166135cf5760405162461bcd60e51b81526004018080602001828103825260268152602001806142396026913960400191505060405180910390fd5b600080546040516001600160a01b03808516939216917f8be0079c531659141344cd1fd0a4f28419497f9722a3daafe3b4186f6b6457e091a3600080546001600160a01b0319166001600160a01b0392909216919091179055565b6001600160a01b0380831660009081526003602090815260408083208584528252808320548151631a995bed60e31b8152915193941692839263d4cadf689260048082019391829003018186803b15801561368457600080fd5b505afa158015613698573d6000803e3d6000fd5b505050506040513d601f19601f820116820180604052508101906136bc9190613db0565b949350505050565b600081613707576040805162461bcd60e51b815260206004820152600c60248201526b4552525f4449565f5a45524f60a01b604482015290519081900360640190fd5b670de0b6b3a7640000830283158061372f5750670de0b6b3a764000084828161372c57fe5b04145b613773576040805162461bcd60e51b815260206004820152601060248201526f11549497d1125597d25395115493905360821b604482015290519081900360640190fd5b600283048101818110156137c1576040805162461bcd60e51b815260206004820152601060248201526f11549497d1125597d25395115493905360821b604482015290519081900360640190fd5b60008482816137cc57fe5b049695505050505050565b3390565b6040518060a0016040528060008152602001600081526020016000815260200160008152602001600081525090565b805161381581614220565b919050565b600082601f83011261382a578081fd5b8151602061383f61383a83614203565b6141e0565b828152818101908583018385028701840188101561385b578586fd5b855b8581101561388257815161387081614220565b8452928401929084019060010161385d565b5090979650505050505050565b600082601f83011261389f578081fd5b815160206138af61383a83614203565b82815281810190858301838502870184018810156138cb578586fd5b855b85811015613882578151845292840192908401906001016138cd565b6000602082840312156138fa578081fd5b81356105be81614220565b60008060408385031215613917578081fd5b823561392281614220565b946020939093013593505050565b60006020808385031215613942578182fd5b82516001600160401b03811115613957578283fd5b8301601f81018513613967578283fd5b805161397561383a82614203565b8181528381019083850185840285018601891015613991578687fd5b8694505b838510156139bc5780516139a881614220565b835260019490940193918501918501613995565b50979650505050505050565b6000602082840312156139d9578081fd5b81516001600160401b038111156139ee578182fd5b6136bc8482850161388f565b600060208284031215613a0b578081fd5b815180151581146105be578182fd5b60008060408385031215613917578182fd5b600080600060608486031215613a40578081fd5b8335613a4b81614220565b9250602084013591506040840135613a6281614220565b809150509250925092565b60008060008060808587031215613a82578182fd5b8435613a8d81614220565b935060208501359250604085013591506060850135613aab81614220565b939692955090935050565b600080600080600060a08688031215613acd578283fd5b8535613ad881614220565b945060208681013594506040870135935060608701356001600160401b03811115613b01578283fd5b8701601f81018913613b11578283fd5b8035613b1f61383a82614203565b81815283810190838501858402850186018d1015613b3b578687fd5b8694505b83851015613b5d578035835260019490940193918501918501613b3f565b50989b979a509598608001359695505050505050565b600080600080600060a08688031215613b8a578283fd5b8535613b9581614220565b94506020860135935060408601359250606086013591506080860135613bba81614220565b809150509295509295909350565b600080600080600060a08688031215613bdf578283fd5b8535613bea81614220565b97602087013597506040870135966060810135965060800135945092505050565b600060208284031215613c1c578081fd5b81516105be81614220565b60008060408385031215613c39578182fd5b8235613c4481614220565b91506020830135613c5481614220565b809150509250929050565b600060208284031215613c70578081fd5b81516001600160401b0380821115613c86578283fd5b8184019150610120808387031215613c9c578384fd5b613ca5816141e0565b9050613cb08361380a565b8152602083015182811115613cc3578485fd5b613ccf8782860161381a565b60208301525060408301516040820152613ceb6060840161380a565b60608201526080830151608082015260a083015160a082015260c083015160c082015260e083015160e08201526101008084015183811115613d2b578586fd5b613d378882870161388f565b918301919091525095945050505050565b600060a08284031215613d59578081fd5b60405160a081018181106001600160401b0382111715613d7557fe5b806040525082518152602083015160208201526040830151604082015260608301516060820152608083015160808201528091505092915050565b600060208284031215613dc1578081fd5b5051919050565b60008060408385031215613dda578182fd5b505080516020909101519092909150565b6000815180845260208085019450808401835b83811015613e1a57815187529582019590820190600101613dfe565b509495945050505050565b6001600160a01b0391909116815260200190565b6001600160a01b0392831681529116602082015260400190565b6001600160a01b039384168152919092166020820152604081019190915260600190565b6001600160a01b03929092168252602082015260400190565b6001600160a01b039390931683526020830191909152604082015260600190565b600060018060a01b038616825284602083015283604083015260806060830152613ede6080830184613deb565b9695505050505050565b6001600160a01b03958616815260208101949094529190931660408301526060820192909252608081019190915260a00190565b6000602082526105be6020830184613deb565b90815260200190565b60208082526032908201527f496e697469616c206c6971756964697479206d757374206265206174206c656160408201527139ba101898181031b7b63630ba32b930b61760711b606082015260800190565b60208082526026908201527f416d6f756e74206f6620636f6c6c61746572616c2072657475726e656420746f60408201526537903637bb9760d11b606082015260800190565b60208082526028908201527f576f756c64206e6f74206861766520726563656976656420656e6f756768204c6040820152675020746f6b656e7360c01b606082015260800190565b6020808252601b908201527f4d696e696d756d2073657473206e6f7420617661696c61626c652e0000000000604082015260600190565b602080825260149082015273141bdbdb08185b1c9958591e4818dc99585d195960621b604082015260600190565b60208082526037908201527f696e73756666696369656e7420636f6c6c61746572616c20616c6c6f77616e6360408201527f6520666f7220696e697469616c206c6971756964697479000000000000000000606082015260800190565b60208082526018908201527f506f6f6c206e6565647320746f20626520637265617465640000000000000000604082015260600190565b60208082526011908201527014db1a5c1c1859d948195e18d959591959607a1b604082015260600190565b600060a082019050825182526020830151602083015260408301516040830152606083015160608301526080830151608083015292915050565b9182526001600160a01b0316602082015260400190565b6000838252604060208301526136bc6040830184613deb565b93845260208401929092526040830152606082015260800190565b92835260208301919091526001600160a01b0316604082015260600190565b6040518181016001600160401b03811182821017156141fb57fe5b604052919050565b60006001600160401b0382111561421657fe5b5060209081020190565b6001600160a01b038116811461423557600080fd5b5056fe4f776e61626c653a206e6577206f776e657220697320746865207a65726f2061646472657373a26469706673582212208f7ecaa25cef5233645545456d29a48f8c9ce26ec8c4f3f641ff18b8981d963264736f6c63430007060033",
  "devdoc": {
    "kind": "dev",
    "methods": {
      "owner()": {
        "details": "Returns the address of the current owner."
      },
      "renounceOwnership()": {
        "details": "Leaves the contract without owner. It will not be possible to call `onlyOwner` functions anymore. Can only be called by the current owner. NOTE: Renouncing ownership will leave the contract without an owner, thereby removing any functionality that is only available to the owner."
      },
      "transferOwnership(address)": {
        "details": "Transfers ownership of the contract to a new account (`newOwner`). Can only be called by the current owner."
      }
    },
    "version": 1
  },
  "userdoc": {
    "kind": "user",
    "methods": {},
    "version": 1
  },
  "storageLayout": {
    "storage": [
      {
        "astId": 53,
        "contract": "contracts/turbo/AMMFactory.sol:AMMFactory",
        "label": "_owner",
        "offset": 0,
        "slot": "0",
        "type": "t_address"
      },
      {
        "astId": 8889,
        "contract": "contracts/turbo/AMMFactory.sol:AMMFactory",
        "label": "bFactory",
        "offset": 0,
        "slot": "1",
        "type": "t_contract(BFactory)2381"
      },
      {
        "astId": 8891,
        "contract": "contracts/turbo/AMMFactory.sol:AMMFactory",
        "label": "masterChef",
        "offset": 0,
        "slot": "2",
        "type": "t_contract(MasterChef)8859"
      },
      {
        "astId": 8897,
        "contract": "contracts/turbo/AMMFactory.sol:AMMFactory",
        "label": "pools",
        "offset": 0,
        "slot": "3",
        "type": "t_mapping(t_address,t_mapping(t_uint256,t_contract(BPool)5717))"
      },
      {
        "astId": 8901,
        "contract": "contracts/turbo/AMMFactory.sol:AMMFactory",
        "label": "masterChefPools",
        "offset": 0,
        "slot": "4",
        "type": "t_mapping(t_address,t_uint256)"
      },
      {
        "astId": 8903,
        "contract": "contracts/turbo/AMMFactory.sol:AMMFactory",
        "label": "fee",
        "offset": 0,
        "slot": "5",
        "type": "t_uint256"
      }
    ],
    "types": {
      "t_address": {
        "encoding": "inplace",
        "label": "address",
        "numberOfBytes": "20"
      },
      "t_contract(BFactory)2381": {
        "encoding": "inplace",
        "label": "contract BFactory",
        "numberOfBytes": "20"
      },
      "t_contract(BPool)5717": {
        "encoding": "inplace",
        "label": "contract BPool",
        "numberOfBytes": "20"
      },
      "t_contract(MasterChef)8859": {
        "encoding": "inplace",
        "label": "contract MasterChef",
        "numberOfBytes": "20"
      },
      "t_mapping(t_address,t_mapping(t_uint256,t_contract(BPool)5717))": {
        "encoding": "mapping",
        "key": "t_address",
        "label": "mapping(address => mapping(uint256 => contract BPool))",
        "numberOfBytes": "32",
        "value": "t_mapping(t_uint256,t_contract(BPool)5717)"
      },
      "t_mapping(t_address,t_uint256)": {
        "encoding": "mapping",
        "key": "t_address",
        "label": "mapping(address => uint256)",
        "numberOfBytes": "32",
        "value": "t_uint256"
      },
      "t_mapping(t_uint256,t_contract(BPool)5717)": {
        "encoding": "mapping",
        "key": "t_uint256",
        "label": "mapping(uint256 => contract BPool)",
        "numberOfBytes": "32",
        "value": "t_contract(BPool)5717"
      },
      "t_uint256": {
        "encoding": "inplace",
        "label": "uint256",
        "numberOfBytes": "32"
      }
    }
  }
}