{
  "address": "0x1a7eE01AC976747c3a1d5807755e5F4b896C0B02",
  "abi": [
    {
      "inputs": [
        {
          "internalType": "contract IERC20",
          "name": "_rewardsToken",
          "type": "address"
        }
      ],
      "stateMutability": "nonpayable",
      "type": "constructor"
    },
    {
      "anonymous": false,
      "inputs": [
        {
          "indexed": true,
          "internalType": "address",
          "name": "user",
          "type": "address"
        },
        {
          "indexed": true,
          "internalType": "uint256",
          "name": "pid",
          "type": "uint256"
        },
        {
          "indexed": false,
          "internalType": "uint256",
          "name": "amount",
          "type": "uint256"
        }
      ],
      "name": "Deposit",
      "type": "event"
    },
    {
      "anonymous": false,
      "inputs": [
        {
          "indexed": true,
          "internalType": "address",
          "name": "user",
          "type": "address"
        },
        {
          "indexed": true,
          "internalType": "uint256",
          "name": "pid",
          "type": "uint256"
        },
        {
          "indexed": false,
          "internalType": "uint256",
          "name": "amount",
          "type": "uint256"
        }
      ],
      "name": "EmergencyWithdraw",
      "type": "event"
    },
    {
      "anonymous": false,
      "inputs": [
        {
          "indexed": true,
          "internalType": "address",
          "name": "previousOwner",
          "type": "address"
        },
        {
          "indexed": true,
          "internalType": "address",
          "name": "newOwner",
          "type": "address"
        }
      ],
      "name": "OwnershipTransferred",
      "type": "event"
    },
    {
      "anonymous": false,
      "inputs": [
        {
          "indexed": true,
          "internalType": "address",
          "name": "MarketFactory",
          "type": "address"
        },
        {
          "indexed": false,
          "internalType": "uint256",
          "name": "OriginEarlyDepositBonusRewards",
          "type": "uint256"
        },
        {
          "indexed": false,
          "internalType": "uint256",
          "name": "OriginrewardsPeriods",
          "type": "uint256"
        },
        {
          "indexed": false,
          "internalType": "uint256",
          "name": "OriginRewardsPerPeriod",
          "type": "uint256"
        },
        {
          "indexed": false,
          "internalType": "uint256",
          "name": "EarlyDepositBonusRewards",
          "type": "uint256"
        },
        {
          "indexed": false,
          "internalType": "uint256",
          "name": "rewardsPeriods",
          "type": "uint256"
        },
        {
          "indexed": false,
          "internalType": "uint256",
          "name": "RewardsPerPeriod",
          "type": "uint256"
        }
      ],
      "name": "TrustMarketFactory",
      "type": "event"
    },
    {
      "anonymous": false,
      "inputs": [
        {
          "indexed": true,
          "internalType": "address",
          "name": "user",
          "type": "address"
        },
        {
          "indexed": true,
          "internalType": "uint256",
          "name": "pid",
          "type": "uint256"
        },
        {
          "indexed": false,
          "internalType": "uint256",
          "name": "amount",
          "type": "uint256"
        }
      ],
      "name": "Withdraw",
      "type": "event"
    },
    {
      "inputs": [],
      "name": "BONE",
      "outputs": [
        {
          "internalType": "uint256",
          "name": "",
          "type": "uint256"
        }
      ],
      "stateMutability": "view",
      "type": "function"
    },
    {
      "inputs": [],
      "name": "BONUS_REWARDS_PERCENTAGE",
      "outputs": [
        {
          "internalType": "uint256",
          "name": "",
          "type": "uint256"
        }
      ],
      "stateMutability": "view",
      "type": "function"
    },
    {
      "inputs": [
        {
          "internalType": "address",
          "name": "_marketFactory",
          "type": "address"
        },
        {
          "internalType": "contract IERC20",
          "name": "_lpToken",
          "type": "address"
        }
      ],
      "name": "add",
      "outputs": [
        {
          "internalType": "uint256",
          "name": "_nextPID",
          "type": "uint256"
        }
      ],
      "stateMutability": "nonpayable",
      "type": "function"
    },
    {
      "inputs": [
        {
          "internalType": "address",
          "name": "_marketFactory",
          "type": "address"
        },
        {
          "internalType": "uint256",
          "name": "_rewardsPerMarket",
          "type": "uint256"
        },
        {
          "internalType": "uint256",
          "name": "_rewardDaysPerMarket",
          "type": "uint256"
        },
        {
          "internalType": "uint256",
          "name": "_earlyDepositBonusRewards",
          "type": "uint256"
        }
      ],
      "name": "addRewards",
      "outputs": [],
      "stateMutability": "nonpayable",
      "type": "function"
    },
    {
      "inputs": [
        {
          "internalType": "uint256",
          "name": "_pid",
          "type": "uint256"
        },
        {
          "internalType": "uint256",
          "name": "_amount",
          "type": "uint256"
        }
      ],
      "name": "deposit",
      "outputs": [],
      "stateMutability": "nonpayable",
      "type": "function"
    },
    {
      "inputs": [
        {
          "internalType": "uint256",
          "name": "_pid",
          "type": "uint256"
        }
      ],
      "name": "emergencyWithdraw",
      "outputs": [],
      "stateMutability": "nonpayable",
      "type": "function"
    },
    {
      "inputs": [
        {
          "internalType": "uint256",
          "name": "_pid",
          "type": "uint256"
        },
        {
          "internalType": "address",
          "name": "_user",
          "type": "address"
        }
      ],
      "name": "getPendingRewardInfo",
      "outputs": [
        {
          "components": [
            {
              "internalType": "uint256",
              "name": "beginTimestamp",
              "type": "uint256"
            },
            {
              "internalType": "uint256",
              "name": "endTimestamp",
              "type": "uint256"
            },
            {
              "internalType": "uint256",
              "name": "accruedStandardRewards",
              "type": "uint256"
            },
            {
              "internalType": "uint256",
              "name": "accruedEarlyDepositBonusRewards",
              "type": "uint256"
            },
            {
              "internalType": "uint256",
              "name": "pendingEarlyDepositBonusRewards",
              "type": "uint256"
            }
          ],
          "internalType": "struct MasterChef.PendingRewardInfo",
          "name": "_pendingRewardInfo",
          "type": "tuple"
        }
      ],
      "stateMutability": "view",
      "type": "function"
    },
    {
      "inputs": [
        {
          "internalType": "uint256",
          "name": "_pid",
          "type": "uint256"
        }
      ],
      "name": "getPercentageOfRewardsForPeriod",
      "outputs": [
        {
          "internalType": "uint256",
          "name": "",
          "type": "uint256"
        }
      ],
      "stateMutability": "view",
      "type": "function"
    },
    {
      "inputs": [
        {
          "internalType": "uint256",
          "name": "_pid",
          "type": "uint256"
        }
      ],
      "name": "getPoolRewardEndTimestamp",
      "outputs": [
        {
          "internalType": "uint256",
          "name": "",
          "type": "uint256"
        }
      ],
      "stateMutability": "view",
      "type": "function"
    },
    {
      "inputs": [
        {
          "internalType": "uint256",
          "name": "_pid",
          "type": "uint256"
        },
        {
          "internalType": "address",
          "name": "_user",
          "type": "address"
        }
      ],
      "name": "getUserAmount",
      "outputs": [
        {
          "internalType": "uint256",
          "name": "",
          "type": "uint256"
        }
      ],
      "stateMutability": "view",
      "type": "function"
    },
    {
      "inputs": [],
      "name": "massUpdatePools",
      "outputs": [],
      "stateMutability": "nonpayable",
      "type": "function"
    },
    {
      "inputs": [],
      "name": "owner",
      "outputs": [
        {
          "internalType": "address",
          "name": "",
          "type": "address"
        }
      ],
      "stateMutability": "view",
      "type": "function"
    },
    {
      "inputs": [
        {
          "internalType": "uint256",
          "name": "",
          "type": "uint256"
        }
      ],
      "name": "poolInfo",
      "outputs": [
        {
          "internalType": "contract IERC20",
          "name": "lpToken",
          "type": "address"
        },
        {
          "internalType": "uint256",
          "name": "accRewardsPerShare",
          "type": "uint256"
        },
        {
          "internalType": "uint256",
          "name": "totalEarlyDepositBonusRewardShares",
          "type": "uint256"
        },
        {
          "internalType": "uint256",
          "name": "beginTimestamp",
          "type": "uint256"
        },
        {
          "internalType": "uint256",
          "name": "earlyDepositBonusRewards",
          "type": "uint256"
        },
        {
          "internalType": "uint256",
          "name": "lastRewardTimestamp",
          "type": "uint256"
        },
        {
          "internalType": "uint256",
          "name": "rewardsPeriods",
          "type": "uint256"
        },
        {
          "internalType": "uint256",
          "name": "rewardsPerPeriod",
          "type": "uint256"
        }
      ],
      "stateMutability": "view",
      "type": "function"
    },
    {
      "inputs": [],
      "name": "poolLength",
      "outputs": [
        {
          "internalType": "uint256",
          "name": "",
          "type": "uint256"
        }
      ],
      "stateMutability": "view",
      "type": "function"
    },
    {
      "inputs": [],
      "name": "renounceOwnership",
      "outputs": [],
      "stateMutability": "nonpayable",
      "type": "function"
    },
    {
      "inputs": [
        {
          "internalType": "address",
          "name": "newOwner",
          "type": "address"
        }
      ],
      "name": "transferOwnership",
      "outputs": [],
      "stateMutability": "nonpayable",
      "type": "function"
    },
    {
      "inputs": [
        {
          "internalType": "address",
          "name": "_ammFactory",
          "type": "address"
        }
      ],
      "name": "trustAMMFactory",
      "outputs": [],
      "stateMutability": "nonpayable",
      "type": "function"
    },
    {
      "inputs": [
        {
          "internalType": "address",
          "name": "_user",
          "type": "address"
        },
        {
          "internalType": "uint256",
          "name": "_pid",
          "type": "uint256"
        },
        {
          "internalType": "uint256",
          "name": "_amount",
          "type": "uint256"
        }
      ],
      "name": "trustedDeposit",
      "outputs": [],
      "stateMutability": "nonpayable",
      "type": "function"
    },
    {
      "inputs": [
        {
          "internalType": "address",
          "name": "_user",
          "type": "address"
        },
        {
          "internalType": "uint256",
          "name": "_pid",
          "type": "uint256"
        },
        {
          "internalType": "uint256",
          "name": "_amount",
          "type": "uint256"
        }
      ],
      "name": "trustedWithdraw",
      "outputs": [],
      "stateMutability": "nonpayable",
      "type": "function"
    },
    {
      "inputs": [
        {
          "internalType": "address",
          "name": "_ammFactory",
          "type": "address"
        }
      ],
      "name": "untrustAMMFactory",
      "outputs": [],
      "stateMutability": "nonpayable",
      "type": "function"
    },
    {
      "inputs": [
        {
          "internalType": "uint256",
          "name": "_pid",
          "type": "uint256"
        }
      ],
      "name": "updatePool",
      "outputs": [],
      "stateMutability": "nonpayable",
      "type": "function"
    },
    {
      "inputs": [
        {
          "internalType": "uint256",
          "name": "",
          "type": "uint256"
        },
        {
          "internalType": "address",
          "name": "",
          "type": "address"
        }
      ],
      "name": "userInfo",
      "outputs": [
        {
          "internalType": "uint256",
          "name": "amount",
          "type": "uint256"
        },
        {
          "internalType": "uint256",
          "name": "rewardDebt",
          "type": "uint256"
        },
        {
          "internalType": "uint256",
          "name": "lastActionTimestamp",
          "type": "uint256"
        }
      ],
      "stateMutability": "view",
      "type": "function"
    },
    {
      "inputs": [
        {
          "internalType": "uint256",
          "name": "_pid",
          "type": "uint256"
        },
        {
          "internalType": "uint256",
          "name": "_amount",
          "type": "uint256"
        }
      ],
      "name": "withdraw",
      "outputs": [],
      "stateMutability": "nonpayable",
      "type": "function"
    },
    {
      "inputs": [
        {
          "internalType": "uint256",
          "name": "_amount",
          "type": "uint256"
        }
      ],
      "name": "withdrawRewards",
      "outputs": [],
      "stateMutability": "nonpayable",
      "type": "function"
    }
  ],
  "transactionHash": "0x45dd4d62a9868ddc88ce34302455626b03578d6f1487880ed31a9dcf461cacb3",
  "args": [
    "0xB7ac70cB2dC91cB21872D01159c40e48557cDb7E"
  ],
  "solcInputHash": "650b95bb97557d4f4a4727b0476b4797",
  "bytecode": "0x60806040523480156200001157600080fd5b5060405162001f7638038062001f768339810160408190526200003491620000b4565b600062000040620000b0565b600080546001600160a01b0319166001600160a01b0383169081178255604051929350917f8be0079c531659141344cd1fd0a4f28419497f9722a3daafe3b4186f6b6457e0908290a350600480546001600160a01b0319166001600160a01b0392909216919091179055620000e4565b3390565b600060208284031215620000c6578081fd5b81516001600160a01b0381168114620000dd578182fd5b9392505050565b611e8280620000f46000396000f3fe608060405234801561001057600080fd5b50600436106101585760003560e01c80639342c8f4116100c3578063c36596a61161007c578063c36596a6146102d1578063d8c08b87146102d9578063e2bbb158146102ec578063eb97ed96146102ff578063f2fde38b14610312578063f7c6e2311461032557610158565b80639342c8f41461025b57806393f1a40b1461026e578063af9551f714610290578063b3474751146102a3578063b453d9b5146102b6578063b637483d146102c957610158565b806351eb05a61161011557806351eb05a6146101fd57806352c28fab146102105780635312ea8e14610223578063630b5ba114610236578063715018a61461023e5780638da5cb5b1461024657610158565b806301b35f101461015d578063081e3eda146101725780631526fe27146101905780633437586b146101b7578063441a3e70146101ca5780634ad9b7ec146101dd575b600080fd5b61017061016b366004611b2b565b610338565b005b61017a610380565b6040516101879190611d39565b60405180910390f35b6101a361019e366004611bb9565b610386565b604051610187989796959493929190611c5b565b61017a6101c5366004611be9565b6103e6565b6101706101d8366004611c0d565b610410565b6101f06101eb366004611be9565b61041f565b6040516101879190611cff565b61017061020b366004611bb9565b61062d565b61017a61021e366004611af3565b610739565b610170610231366004611bb9565b610949565b6101706109ef565b610170610a0e565b61024e610aba565b6040516101879190611c2e565b610170610269366004611bb9565b610ac9565b61028161027c366004611be9565b610bae565b60405161018793929190611d42565b61017061029e366004611ad7565b610bd6565b6101706102b1366004611b2b565b610c5c565b61017a6102c4366004611bb9565b610c96565b61017a610cd8565b61017a610ce4565b6101706102e7366004611b5f565b610cf0565b6101706102fa366004611c0d565b610e01565b61017061030d366004611ad7565b610e0c565b610170610320366004611ad7565b610e8f565b61017a610333366004611bb9565b610f91565b3360009081526005602052604090205460ff166103705760405162461bcd60e51b815260040161036790611c9c565b60405180910390fd5b61037b83838361105e565b505050565b60025490565b6002818154811061039657600080fd5b6000918252602090912060089091020180546001820154600283015460038401546004850154600586015460068701546007909701546001600160a01b0390961697509395929491939092909188565b60008281526001602090815260408083206001600160a01b03851684529091529020545b92915050565b61041b33838361105e565b5050565b610427611aa8565b60006002848154811061043657fe5b60009182526020808320878452600180835260408086206001600160a01b03808b1688529452808620600890950290920190810154815492516370a0823160e01b815291965093949291909116906370a0823190610498903090600401611c2e565b60206040518083038186803b1580156104b057600080fd5b505afa1580156104c4573d6000803e3d6000fd5b505050506040513d601f19601f820116820180604052508101906104e89190611bd1565b60068501549091506000908190670de0b6b3a7640000906901d460162f516f0000000204905085600301548101600101876020018181525050600086600201541180156105385750866020015142115b156105685760028601548554600488015461055e92916105589190611253565b906112b3565b6060880152610593565b6002860154156105935760028601548554600488015461058d92916105589190611253565b60808801525b8560050154421180156105a557508215155b156105e05760006105b58a610f91565b90506105dc6105d5856105588a600701548561125390919063ffffffff16565b869061131a565b9450505b61061b82610615876001015461060f670de0b6b3a76400006105588a8c6000015461125390919063ffffffff16565b90611374565b9061131a565b60408801525094979650505050505050565b60006002828154811061063c57fe5b906000526020600020906008020190508060050154421161065d5750610736565b80546040516370a0823160e01b81526000916001600160a01b0316906370a082319061068d903090600401611c2e565b60206040518083038186803b1580156106a557600080fd5b505afa1580156106b9573d6000803e3d6000fd5b505050506040513d601f19601f820116820180604052508101906106dd9190611bd1565b9050806106f1575042600590910155610736565b60006106fc84610f91565b905061072761071c8361055886600701548561125390919063ffffffff16565b60018501549061131a565b60018401555050426005909101555b50565b3360009081526005602052604081205460ff166107685760405162461bcd60e51b815260040161036790611c9c565b50600280546001600160a01b03938416600090815260036020908152604080832081516060808201845282548252600180840154838701908152938901548386019081528551610100810187529a8c168b52958a01878152948a0187815242928b01838152935160808c0190815260a08c01938452945160c08c01908152965160e08c019081529189018a559890965297517f405787fa12a823e0f2b7631cc41b3ba8828b3321ca811111fa75cd3aa3bb5ace6008880290810180546001600160a01b03191692909b169190911790995591517f405787fa12a823e0f2b7631cc41b3ba8828b3321ca811111fa75cd3aa3bb5acf89015594517f405787fa12a823e0f2b7631cc41b3ba8828b3321ca811111fa75cd3aa3bb5ad0880155517f405787fa12a823e0f2b7631cc41b3ba8828b3321ca811111fa75cd3aa3bb5ad187015592517f405787fa12a823e0f2b7631cc41b3ba8828b3321ca811111fa75cd3aa3bb5ad286015592517f405787fa12a823e0f2b7631cc41b3ba8828b3321ca811111fa75cd3aa3bb5ad385015590517f405787fa12a823e0f2b7631cc41b3ba8828b3321ca811111fa75cd3aa3bb5ad484015590517f405787fa12a823e0f2b7631cc41b3ba8828b3321ca811111fa75cd3aa3bb5ad59092019190915590565b60006002828154811061095857fe5b6000918252602080832085845260018252604080852033808752935290932080546008909302909301805490945061099d926001600160a01b039190911691906113d1565b8054604051849133917fbb757047c2b5f3974fe26b7c10f732e7bce710b0952a71082702781e62ae0595916109d191611d39565b60405180910390a36000808255600182018190556002909101555050565b60025460005b8181101561041b57610a068161062d565b6001016109f5565b610a16611423565b6001600160a01b0316610a27610aba565b6001600160a01b031614610a70576040805162461bcd60e51b81526020600482018190526024820152600080516020611e03833981519152604482015290519081900360640190fd5b600080546040516001600160a01b03909116907f8be0079c531659141344cd1fd0a4f28419497f9722a3daafe3b4186f6b6457e0908390a3600080546001600160a01b0319169055565b6000546001600160a01b031690565b610ad1611423565b6001600160a01b0316610ae2610aba565b6001600160a01b031614610b2b576040805162461bcd60e51b81526020600482018190526024820152600080516020611e03833981519152604482015290519081900360640190fd5b6004805460405163a9059cbb60e01b81526001600160a01b039091169163a9059cbb91610b5c913391869101611c42565b602060405180830381600087803b158015610b7657600080fd5b505af1158015610b8a573d6000803e3d6000fd5b505050506040513d601f19601f8201168201806040525081019061041b9190611b99565b6001602081815260009384526040808520909152918352912080549181015460029091015483565b610bde611423565b6001600160a01b0316610bef610aba565b6001600160a01b031614610c38576040805162461bcd60e51b81526020600482018190526024820152600080516020611e03833981519152604482015290519081900360640190fd5b6001600160a01b03166000908152600560205260409020805460ff19166001179055565b3360009081526005602052604090205460ff16610c8b5760405162461bcd60e51b815260040161036790611c9c565b61037b838383611427565b60008060028381548110610ca657fe5b90600052602060002090600802019050600081600601546201518002600101905081600301548101925050505b919050565b67016345785d8a000081565b670de0b6b3a764000081565b600060036000866001600160a01b03166001600160a01b031681526020019081526020016000206040518060600160405290816000820154815260200160018201548152602001600282015481525050905060405180606001604052808381526020018481526020018581525060036000876001600160a01b03166001600160a01b03168152602001908152602001600020600082015181600001556020820151816001015560408201518160020155905050846001600160a01b03167fe306af96e1d2ee556327ede5cfbae9786f190dd64b7948e676453e607cc73f4982600001518360200151846040015186888a604051610df296959493929190611d58565b60405180910390a25050505050565b61041b338383611427565b610e14611423565b6001600160a01b0316610e25610aba565b6001600160a01b031614610e6e576040805162461bcd60e51b81526020600482018190526024820152600080516020611e03833981519152604482015290519081900360640190fd5b6001600160a01b03166000908152600560205260409020805460ff19169055565b610e97611423565b6001600160a01b0316610ea8610aba565b6001600160a01b031614610ef1576040805162461bcd60e51b81526020600482018190526024820152600080516020611e03833981519152604482015290519081900360640190fd5b6001600160a01b038116610f365760405162461bcd60e51b8152600401808060200182810382526026815260200180611d966026913960400191505060405180910390fd5b600080546040516001600160a01b03808516939216917f8be0079c531659141344cd1fd0a4f28419497f9722a3daafe3b4186f6b6457e091a3600080546001600160a01b0319166001600160a01b0392909216919091179055565b60008060028381548110610fa157fe5b9060005260206000209060080201905060004290508082600301541180610fcb5750808260050154115b80610fd857506007820154155b80610fe557506006820154155b15610ff557600092505050610cd3565b6000826006015462015180029050600083600301548201600101905080846005015410611029576000945050505050610cd3565b600061103d856005015461060f86856115cc565b905082670de0b6b3a764000082028161105257fe5b04979650505050505050565b60006002838154811061106d57fe5b600091825260208083208684526001825260408085206001600160a01b038a16865290925292208054600890920290920192508311156110bf5760405162461bcd60e51b815260040161036790611cd3565b6110c88461062d565b6006820154600090670de0b6b3a7640000906901d460162f516f000000026003850154919004915081016001018042811161113b57600285015415611136576000611128866002015461055889896004015461125390919063ffffffff16565b905061113489826115e3565b505b61117c565b42821061115b5760028501546111519087611374565b600286015561117c565b8360020154821061117c578354600286015461117691611374565b60028601555b60006111ad856001015461060f670de0b6b3a76400006105588a600101548a6000015461125390919063ffffffff16565b90506111b989826115e3565b84546111c59088611374565b80865560018701546111e591670de0b6b3a7640000916105589190611253565b60018601554260028601558554611206906001600160a01b031633896113d1565b87336001600160a01b03167ff279e6a1f5e320cca91135676d9cb6e44ca8a08c0b88342bcdb1144f6511b568896040516112409190611d39565b60405180910390a3505050505050505050565b6000826112625750600061040a565b8282028284828161126f57fe5b04146112ac5760405162461bcd60e51b8152600401808060200182810382526021815260200180611de26021913960400191505060405180910390fd5b9392505050565b6000808211611309576040805162461bcd60e51b815260206004820152601a60248201527f536166654d6174683a206469766973696f6e206279207a65726f000000000000604482015290519081900360640190fd5b81838161131257fe5b049392505050565b6000828201838110156112ac576040805162461bcd60e51b815260206004820152601b60248201527f536166654d6174683a206164646974696f6e206f766572666c6f770000000000604482015290519081900360640190fd5b6000828211156113cb576040805162461bcd60e51b815260206004820152601e60248201527f536166654d6174683a207375627472616374696f6e206f766572666c6f770000604482015290519081900360640190fd5b50900390565b604080516001600160a01b038416602482015260448082018490528251808303909101815260649091019091526020810180516001600160e01b031663a9059cbb60e01b17905261037b908490611781565b3390565b60006002838154811061143657fe5b600091825260208083208684526001825260408085206001600160a01b038a1686529092529220600890910290910191506114708461062d565b8054156114b65760006114a8826001015461060f670de0b6b3a76400006105588760010154876000015461125390919063ffffffff16565b90506114b486826115e3565b505b6006820154600090670de0b6b3a7640000906901d460162f516f000000026003850154919004915081016001018042811080156114f7575081846002015411155b15611512578354600286015461150c91611374565b60028601555b4282111561152f576002850154611529908761131a565b60028601555b8454611546906001600160a01b0316333089611832565b8354611552908761131a565b808555600186015461157291670de0b6b3a7640000916105589190611253565b600185015542600285015560405187906001600160a01b038a16907f90890809c654f11d6e72a28fa60149770a0d11ec6c92319d6ceb2bb0a4ea1a15906115ba908a90611d39565b60405180910390a35050505050505050565b60008183116115dc57508161040a565b508061040a565b600480546040516370a0823160e01b81526000926001600160a01b03909216916370a082319161161591309101611c2e565b60206040518083038186803b15801561162d57600080fd5b505afa158015611641573d6000803e3d6000fd5b505050506040513d601f19601f820116820180604052508101906116659190611bd1565b9050808211156116f8576004805460405163a9059cbb60e01b81526001600160a01b039091169163a9059cbb916116a0918791869101611c42565b602060405180830381600087803b1580156116ba57600080fd5b505af11580156116ce573d6000803e3d6000fd5b505050506040513d601f19601f820116820180604052508101906116f29190611b99565b5061037b565b6004805460405163a9059cbb60e01b81526001600160a01b039091169163a9059cbb91611729918791879101611c42565b602060405180830381600087803b15801561174357600080fd5b505af1158015611757573d6000803e3d6000fd5b505050506040513d601f19601f8201168201806040525081019061177b9190611b99565b50505050565b60006117d6826040518060400160405280602081526020017f5361666545524332303a206c6f772d6c6576656c2063616c6c206661696c6564815250856001600160a01b031661188c9092919063ffffffff16565b80519091501561037b578080602001905160208110156117f557600080fd5b505161037b5760405162461bcd60e51b815260040180806020018281038252602a815260200180611e23602a913960400191505060405180910390fd5b604080516001600160a01b0380861660248301528416604482015260648082018490528251808303909101815260849091019091526020810180516001600160e01b03166323b872dd60e01b17905261177b908590611781565b606061189b84846000856118a3565b949350505050565b6060824710156118e45760405162461bcd60e51b8152600401808060200182810382526026815260200180611dbc6026913960400191505060405180910390fd5b6118ed856119fe565b61193e576040805162461bcd60e51b815260206004820152601d60248201527f416464726573733a2063616c6c20746f206e6f6e2d636f6e7472616374000000604482015290519081900360640190fd5b600080866001600160a01b031685876040518082805190602001908083835b6020831061197c5780518252601f19909201916020918201910161195d565b6001836020036101000a03801982511681845116808217855250505050505090500191505060006040518083038185875af1925050503d80600081146119de576040519150601f19603f3d011682016040523d82523d6000602084013e6119e3565b606091505b50915091506119f3828286611a04565b979650505050505050565b3b151590565b60608315611a135750816112ac565b825115611a235782518084602001fd5b8160405162461bcd60e51b81526004018080602001828103825283818151815260200191508051906020019080838360005b83811015611a6d578181015183820152602001611a55565b50505050905090810190601f168015611a9a5780820380516001836020036101000a031916815260200191505b509250505060405180910390fd5b6040518060a0016040528060008152602001600081526020016000815260200160008152602001600081525090565b600060208284031215611ae8578081fd5b81356112ac81611d80565b60008060408385031215611b05578081fd5b8235611b1081611d80565b91506020830135611b2081611d80565b809150509250929050565b600080600060608486031215611b3f578081fd5b8335611b4a81611d80565b95602085013595506040909401359392505050565b60008060008060808587031215611b74578081fd5b8435611b7f81611d80565b966020860135965060408601359560600135945092505050565b600060208284031215611baa578081fd5b815180151581146112ac578182fd5b600060208284031215611bca578081fd5b5035919050565b600060208284031215611be2578081fd5b5051919050565b60008060408385031215611bfb578182fd5b823591506020830135611b2081611d80565b60008060408385031215611c1f578182fd5b50508035926020909101359150565b6001600160a01b0391909116815260200190565b6001600160a01b03929092168252602082015260400190565b6001600160a01b03989098168852602088019690965260408701949094526060860192909252608085015260a084015260c083015260e08201526101000190565b60208082526018908201527f43616c6c6572206d75737420626520617070726f7665642e0000000000000000604082015260600190565b6020808252601290820152711dda5d1a191c985dce881b9bdd0819dbdbd960721b604082015260600190565b600060a082019050825182526020830151602083015260408301516040830152606083015160608301526080830151608083015292915050565b90815260200190565b9283526020830191909152604082015260600190565b958652602086019490945260408501929092526060840152608083015260a082015260c00190565b6001600160a01b038116811461073657600080fdfe4f776e61626c653a206e6577206f776e657220697320746865207a65726f2061646472657373416464726573733a20696e73756666696369656e742062616c616e636520666f722063616c6c536166654d6174683a206d756c7469706c69636174696f6e206f766572666c6f774f776e61626c653a2063616c6c6572206973206e6f7420746865206f776e65725361666545524332303a204552433230206f7065726174696f6e20646964206e6f742073756363656564a2646970667358221220f60cdb8416157ba8c63ba5ee29dab237f4ac289ba782d92ae1b183740a9ed68964736f6c63430007060033",
  "devdoc": {
    "kind": "dev",
    "methods": {
      "owner()": {
        "details": "Returns the address of the current owner."
      },
      "renounceOwnership()": {
        "details": "Leaves the contract without owner. It will not be possible to call `onlyOwner` functions anymore. Can only be called by the current owner. NOTE: Renouncing ownership will leave the contract without an owner, thereby removing any functionality that is only available to the owner."
      },
      "transferOwnership(address)": {
        "details": "Transfers ownership of the contract to a new account (`newOwner`). Can only be called by the current owner."
      }
    },
    "version": 1
  },
  "userdoc": {
    "kind": "user",
    "methods": {},
    "version": 1
  },
  "storageLayout": {
    "storage": [
      {
        "astId": 53,
        "contract": "contracts/rewards/MasterChef.sol:MasterChef",
        "label": "_owner",
        "offset": 0,
        "slot": "0",
        "type": "t_address"
      },
      {
        "astId": 7662,
        "contract": "contracts/rewards/MasterChef.sol:MasterChef",
        "label": "userInfo",
        "offset": 0,
        "slot": "1",
        "type": "t_mapping(t_uint256,t_mapping(t_address,t_struct(UserInfo)7656_storage))"
      },
      {
        "astId": 7682,
        "contract": "contracts/rewards/MasterChef.sol:MasterChef",
        "label": "poolInfo",
        "offset": 0,
        "slot": "2",
        "type": "t_array(t_struct(PoolInfo)7679_storage)dyn_storage"
      },
      {
        "astId": 7704,
        "contract": "contracts/rewards/MasterChef.sol:MasterChef",
        "label": "marketFactoryRewardInfo",
        "offset": 0,
        "slot": "3",
        "type": "t_mapping(t_address,t_struct(MarketFactoryInfo)7700_storage)"
      },
      {
        "astId": 7706,
        "contract": "contracts/rewards/MasterChef.sol:MasterChef",
        "label": "rewardsToken",
        "offset": 0,
        "slot": "4",
        "type": "t_contract(IERC20)1091"
      },
      {
        "astId": 7710,
        "contract": "contracts/rewards/MasterChef.sol:MasterChef",
        "label": "approvedAMMFactories",
        "offset": 0,
        "slot": "5",
        "type": "t_mapping(t_address,t_bool)"
      }
    ],
    "types": {
      "t_address": {
        "encoding": "inplace",
        "label": "address",
        "numberOfBytes": "20"
      },
      "t_array(t_struct(PoolInfo)7679_storage)dyn_storage": {
        "base": "t_struct(PoolInfo)7679_storage",
        "encoding": "dynamic_array",
        "label": "struct MasterChef.PoolInfo[]",
        "numberOfBytes": "32"
      },
      "t_bool": {
        "encoding": "inplace",
        "label": "bool",
        "numberOfBytes": "1"
      },
      "t_contract(IERC20)1091": {
        "encoding": "inplace",
        "label": "contract IERC20",
        "numberOfBytes": "20"
      },
      "t_mapping(t_address,t_bool)": {
        "encoding": "mapping",
        "key": "t_address",
        "label": "mapping(address => bool)",
        "numberOfBytes": "32",
        "value": "t_bool"
      },
      "t_mapping(t_address,t_struct(MarketFactoryInfo)7700_storage)": {
        "encoding": "mapping",
        "key": "t_address",
        "label": "mapping(address => struct MasterChef.MarketFactoryInfo)",
        "numberOfBytes": "32",
        "value": "t_struct(MarketFactoryInfo)7700_storage"
      },
      "t_mapping(t_address,t_struct(UserInfo)7656_storage)": {
        "encoding": "mapping",
        "key": "t_address",
        "label": "mapping(address => struct MasterChef.UserInfo)",
        "numberOfBytes": "32",
        "value": "t_struct(UserInfo)7656_storage"
      },
      "t_mapping(t_uint256,t_mapping(t_address,t_struct(UserInfo)7656_storage))": {
        "encoding": "mapping",
        "key": "t_uint256",
        "label": "mapping(uint256 => mapping(address => struct MasterChef.UserInfo))",
        "numberOfBytes": "32",
        "value": "t_mapping(t_address,t_struct(UserInfo)7656_storage)"
      },
      "t_struct(MarketFactoryInfo)7700_storage": {
        "encoding": "inplace",
        "label": "struct MasterChef.MarketFactoryInfo",
        "members": [
          {
            "astId": 7695,
            "contract": "contracts/rewards/MasterChef.sol:MasterChef",
            "label": "earlyDepositBonusRewards",
            "offset": 0,
            "slot": "0",
            "type": "t_uint256"
          },
          {
            "astId": 7697,
            "contract": "contracts/rewards/MasterChef.sol:MasterChef",
            "label": "rewardsPeriods",
            "offset": 0,
            "slot": "1",
            "type": "t_uint256"
          },
          {
            "astId": 7699,
            "contract": "contracts/rewards/MasterChef.sol:MasterChef",
            "label": "rewardsPerPeriod",
            "offset": 0,
            "slot": "2",
            "type": "t_uint256"
          }
        ],
        "numberOfBytes": "96"
      },
      "t_struct(PoolInfo)7679_storage": {
        "encoding": "inplace",
        "label": "struct MasterChef.PoolInfo",
        "members": [
          {
            "astId": 7664,
            "contract": "contracts/rewards/MasterChef.sol:MasterChef",
            "label": "lpToken",
            "offset": 0,
            "slot": "0",
            "type": "t_contract(IERC20)1091"
          },
          {
            "astId": 7666,
            "contract": "contracts/rewards/MasterChef.sol:MasterChef",
            "label": "accRewardsPerShare",
            "offset": 0,
            "slot": "1",
            "type": "t_uint256"
          },
          {
            "astId": 7668,
            "contract": "contracts/rewards/MasterChef.sol:MasterChef",
            "label": "totalEarlyDepositBonusRewardShares",
            "offset": 0,
            "slot": "2",
            "type": "t_uint256"
          },
          {
            "astId": 7670,
            "contract": "contracts/rewards/MasterChef.sol:MasterChef",
            "label": "beginTimestamp",
            "offset": 0,
            "slot": "3",
            "type": "t_uint256"
          },
          {
            "astId": 7672,
            "contract": "contracts/rewards/MasterChef.sol:MasterChef",
            "label": "earlyDepositBonusRewards",
            "offset": 0,
            "slot": "4",
            "type": "t_uint256"
          },
          {
            "astId": 7674,
            "contract": "contracts/rewards/MasterChef.sol:MasterChef",
            "label": "lastRewardTimestamp",
            "offset": 0,
            "slot": "5",
            "type": "t_uint256"
          },
          {
            "astId": 7676,
            "contract": "contracts/rewards/MasterChef.sol:MasterChef",
            "label": "rewardsPeriods",
            "offset": 0,
            "slot": "6",
            "type": "t_uint256"
          },
          {
            "astId": 7678,
            "contract": "contracts/rewards/MasterChef.sol:MasterChef",
            "label": "rewardsPerPeriod",
            "offset": 0,
            "slot": "7",
            "type": "t_uint256"
          }
        ],
        "numberOfBytes": "256"
      },
      "t_struct(UserInfo)7656_storage": {
        "encoding": "inplace",
        "label": "struct MasterChef.UserInfo",
        "members": [
          {
            "astId": 7651,
            "contract": "contracts/rewards/MasterChef.sol:MasterChef",
            "label": "amount",
            "offset": 0,
            "slot": "0",
            "type": "t_uint256"
          },
          {
            "astId": 7653,
            "contract": "contracts/rewards/MasterChef.sol:MasterChef",
            "label": "rewardDebt",
            "offset": 0,
            "slot": "1",
            "type": "t_uint256"
          },
          {
            "astId": 7655,
            "contract": "contracts/rewards/MasterChef.sol:MasterChef",
            "label": "lastActionTimestamp",
            "offset": 0,
            "slot": "2",
            "type": "t_uint256"
          }
        ],
        "numberOfBytes": "96"
      },
      "t_uint256": {
        "encoding": "inplace",
        "label": "uint256",
        "numberOfBytes": "32"
      }
    }
  }
}